:100000000C9446000C945D000C945D000C945D0013
:100010000C945D000C945D000C945D000C945D00EC
:100020000C945D000C945D000C945D000C945D00DC
:100030000C945D000C945D000C945D000C945D00CC
:100040000C945D000C945D000C945D000C945D00BC
:100050000C945D000C945D000C945D000C945D00AC
:100060000C945D000C945D000C945D000C945D009C
:100070000C945D000C945D000C945D000C945D008C
:100080000C945D000C945D000C945D0011241FBE67
:10009000CFEFD0E4DEBFCDBF11E0A0E0B1E0E2EBF6
:1000A000F1E000E00BBF02C007900D92AE30B10747
:1000B000D9F70E9488000C94D7000C940000CF93CD
:1000C000DF9300D01F92CDB7DEB789837B836A832D
:1000D00089818A3031F48A819B81BC018DE00E9444
:1000E0005F0080EC90E0FC018081882F90E08072BE
:1000F00099270097B1F386EC90E02981FC012083D9
:1001000080E090E00F900F900F90DF91CF910895D5
:10011000CF93DF931F92CDB7DEB781E290E0FC0171
:10012000108282E290E02FEFFC01208387E290E0D2
:100130002FEFFC01208388E290E0FC01108280E236
:1001400090E0FC018081282F217080E290E0FC018A
:100150008081882F90E08270992795958795280F48
:1001600080E290E0FC018081882F90E084709927E4
:100170009595879595958795280F80E290E0FC01ED
:100180008081882F90E0887099279595879595951F
:10019000879595958795820F898388E290E034E072
:1001A0002981F32FF21B2F2FFC012083C8CFF89455
:0201B000FFCF7F
:0E01B20000000002000000005F0000000000DE
:00000001FF
